:020000040800F2
:1000000080190020E1060008772B00080D29000860
:10001000752B0008550C00084F3100080000000047
:10002000000000000000000000000000AB2D0008F0
:10003000830C000800000000A92D0008AD2D000869
:10004000FB060008FB060008FB060008FB0600088C
:10005000FB060008FB060008FB060008FB0600087C
:10006000FB060008FB060008FB060008590C000808
:10007000FB060008FB060008FB060008FB0600085C
:10008000FB060008FB060008FB060008FB0600084C
:10009000FB060008FB060008FB060008FB0600083C
:1000A000FB060008FB060008FB060008FB0600082C
:1000B000FB060008FB060008FB060008FB0600081C
:1000C000FB060008FB060008FB060008FB0600080C
:1000D000FB060008FB060008FB060008FB060008FC
:1000E000FB060008FB060008FB060008DFF80CD042
:1000F00000F006FD00480047B134000880190020D8
:100100002DE9F04F4FF0000C4FF0000301EB1C6E97
:10011000BEF90250BEF900400EF5807EBEF9029095
:10012000BEF900800EF5807EBEF90270BEF9006057
:100130000EF5807EBEF902B0BEF900A00EF5807EFD
:10014000D044D944A8EB4A0AA9EB4B0B4FEAA404CC
:100150004FEAA50504EBA60405EBA705A4EB66068C
:10016000A5EB670704EBA80405EBA905A4EB680859
:10017000A5EB690906EBAB06A7EBAA07A6EB6B0B91
:1001800007EB6A0A458020F8044B478020F8046B8F
:10019000A0F8029020F8048BA0F802A020F804BB7D
:1001A00003F1010393FAA3FC402BAFD1A0EB820132
:1001B0004FF0100312090FF2361000F1000006B4E0
:1001C00003EB430C6144A2F5803202EB8332B1F9B8
:1001D0000250B1F90040A1EB0301B0F902B0B0F94F
:1001E00000A000F10400A5EB040E0EFB0BFC0AEBD3
:1001F0004B0E05FB0ACB04FB0ECAB1F90250B1F954
:100200000040A1EB0301B0F90290B0F9008000F1C9
:100210000400A5EB040E0EFB09FC08EB490E05FBE0
:1002200008C904FB0EC8B1F90250B1F90040A1EBB6
:100230000301B0F90270B0F9006000F10400A5EB11
:10024000040E0EFB07FC06EB470E05FB06C704FB7E
:100250000EC6B1F90250B1F9004001F10001D044DD
:10026000D944A8EB4A0AA9EB4B0B4FEAA4044FEA86
:10027000A50504EB264405EB2745A4EBE636A5EBE4
:10028000E73704EB284405EB2945A4EBE838A5EB58
:10029000E93906EB2B46A7EB2A47A6EBEB3B07EB2E
:1002A000EA3A4D800C8019444F800E801944A1F821
:1002B0000290A1F800801944A1F802A021F804BB23
:1002C000B2F5803283DA03EB430C6144A2F1010200
:1002D0005FEA024E18BFA0EB0C007FF476AF06BCBD
:1002E0004FEA830392087FF46AAFBDE8F08F0040C5
:1002F000000000400000004000005DDD213BA32223
:100300007E180000412D7EA5412D0000412D00C02A
:1003100000405DDD82E75DDD213B7EA5412D004093
:1003200000000040000000400000AA2A94126B392F
:10033000460649327C0CA8118E2349327C0CA3223C
:100340007E1821F77931AA2A9412A8118E235DDD37
:10035000213BA3227E180000412D95C6B13F461ACD
:100360002B1E58EE3735BEB4C53EA8118E235DDD79
:10037000213B63A97138DF089A28B7CDC53E7EA519
:10038000412D0000412D00C0004063A92B1E21F724
:100390007931BEB4C53EBEB47C0C58EE373561AC85
:1003A000213B95C6BAF9BAE571383BA737355DDD13
:1003B00082E75DDD213B7EA5412D21F766D756D52D
:1003C0003F3D3BA78E23A811C9CAB7CDC53E61AC3E
:1003D0007E18AA2AC1C295C6B13FBEB47C0C0040AB
:1003E000000000400000004000001E3BB504693ED4
:1003F0009201C83C2403EB356409C83C24036B39E3
:1004000046066C30060E1E3BB504EB356409AA2A7D
:1004100094126B39460649327C0CAE240917AF376B
:10042000D607882E8D0F7E1E5D1BEB356409AA2A28
:10043000941224188C1F1E34F10AB3269015A811AB
:100440008E2349327C0CA3227E18140B60276C305B
:10045000060E7E1E5D1B7104FB2A882E8D0F461A28
:100460002B1EC7FD5A2E9D2C1211FE15E72021F7D9
:100470007931AA2A9412A8118E2387F05334B22816
:100480001314480D202602EAE536B3269015DF083E
:100490009A289CE32B39AE2409177104FB2A5DDDF1
:1004A000213BA3227E180000412D4ED7C53C93204E
:1004B000EF198FFB6C2F78D1153E7E1E5D1B21F747
:1004C0007931E2CB0F3F641CC61CB8F2683395C685
:1004D000B13F461A2B1E58EE373597C1FB3F241803
:1004E0008C1F02EAE536F0BCEC3FFE15E720BAE5CA
:1004F0007138A6B8853FD5133D2282E1DB39BEB401
:10050000C53EA8118E235DDD213B40B1AF3D790F83
:10051000DA244DD9423C2EAE423C480D202656D519
:100520003F3D8EAB823A140B602778D1153E63A90C
:100530007138DF089A28B7CDC53EB1A71236A90693
:10054000CE2915CA4F3F78A668337104FB2A95C699
:10055000B13FBCA576303902212C38C3EC3F7EA5D3
:10056000412D0000412D00C00040BCA5CE29C7FD93
:100570005A2EF0BCEC3F78A620268FFB6C2F09BAD0
:10058000B13FB1A73D2257F976304DB74F3F63A930
:100590002B1E21F77931BEB4C53E8EABEF19ECF4BA
:1005A00074325EB2153E2EAE9015B8F268332DB09F
:1005B0003F3D40B1121187F053342EAE423CBEB4E1
:1005C0007C0C58EE373561AC213BA6B8D6072BEC36
:1005D0001236C8AADB39F0BC240302EAE53663A967
:1005E000713897C16EFEDCE7B03734A8E53695C6A2
:1005F000BAF9BAE571383BA73735E2CB0FF59CE382
:100600002B3978A6683378D173F082E1DB39EDA518
:1006100079314ED7EDEB6DDF823A99A56C2F5DDD18
:1006200082E75DDD213B7EA5412D9CE33AE352DB71
:10063000B63B99A5FB2A02EA19DF4DD9423CEDA54C
:100640009A2887F026DB4ED7C53C78A6202621F7CE
:1006500066D756D53F3D3BA78E23C7FDDFD363D377
:10066000AF3D34A8E720710494D078D1153E63A93A
:100670002B1E140B8CCD94CF723EC8AA5D1BA81103
:10068000C9CAB7CDC53E61AC7E18241850C8E2CBAC
:100690000F3F2EAE90157E1E25C615CA4F3F2DB0BA
:1006A0009412AE244AC451C8853F5EB28D0FAA2A67
:1006B000C1C295C6B13FBEB47C0C6C308EC1E2C4E1
:1006C000D43F4DB76409EB35B1C038C3EC3F09BA2C
:1006D00046061E3B2CC097C1FB3FF0BC2403000024
:1006E0000648804706480047FEE7FEE7FEE7FEE7CC
:1006F000FEE7FEE7FEE7FEE7FEE7FEE7352E000831
:10070000ED000008202A04DB203A21FA02F0002143
:10071000704721FA02F3D040C2F120029140084311
:1007200019467047F0B480EA0102D40F4200B2EBE0
:10073000410F02D20246084611464A0042D0C30D7C
:10074000DDB2C1F3C752AD1A202D35DAC1F316015F
:1007500041F4000204B15242C5F1200602FA06F14A
:100760002A411044B3EBD05F23D0C4B1012DA0EBDC
:10077000C35009DCF0BC4FF0004202EAC352DBB2C6
:1007800000F5000000F0DFB8400000F1807000EBE1
:10079000C350A0F1807040EAD170490009E04908D7
:1007A00041EAC071A0EBC35000F50000400800EB27
:1007B000C350F0BC00F0BEB86142012202EB41011F
:1007C000001BF6E7F0BC704781F00041AAE780F01B
:1007D0000040A7E780EA010210B502F000434000A4
:1007E00022D04A001FD0010E01EB1261C0F3560067
:1007F000C2F3560240F4000042F40002A0FB0220C3
:1008000000047F39140400D0401C50EA124001D487
:100810004000491EC2B20C0604EBD010401C400838
:10082000802A02D003E0002010BD20F00100002942
:1008300000DA0020184310BD420005D0C0F3C752B3
:100840005242914201DC0020704700EBC1507047DA
:1008500070B521F0004303430CD0C1F30A550024C6
:10086000D5EB040564EB0403D617AD1AB34102DBE4
:100870000020014670BD201841EB025170BDC10F30
:1008800080EAE0700844CA079623002100F05BB8B4
:1008900020F00040C10DC0F3160040F400007F2995
:1008A00001DA00207047962903DCC1F19601C840A7
:1008B000704796398840704700F0004230F00040A1
:1008C0000AD0C10D01F56071C0F3160042EA015172
:1008D000C20840071143704700200146704701F0ED
:1008E000004330B421F0004150EA010206D00A0D65
:1008F000A2F56072C1F31301002A02DC30BC0020B3
:100900007047440F44EAC104C100E01830BC00EB5A
:10091000C25000F00FB8202A04DB203A00FA02F19E
:10092000002070479140C2F1200320FA03F31943DD
:10093000904070470029A8BF7047401C490008BF7D
:1009400020F00100704710B4B0FA80FC00FA0CF0FF
:1009500050EA010404BF10BC704749B1CCF1200437
:1009600021FA04F411FA0CF118BF012121430843C4
:10097000A3EB0C01CB1D4FEA00614FEA102042BFF0
:10098000002010BC704700EBC35010440029A4BFE6
:1009900010BC7047401C490008BF20F0010010BC8B
:1009A000704710B5141E73F1000408DA401C41F1C1
:1009B000000192185B411A4301D120F0010010BDE3
:1009C0002DE9F04D92469B4611B1B1FA81F202E059
:1009D000B0FA80F220329046FFF79DFF04460F46A2
:1009E00040EA0A0041EA0B0153465A46084313D035
:1009F000114653EA010019D0C8F140025046FFF7F2
:100A000081FE05460E46504659464246FFF783FF93
:100A1000084305D0012004E020463946BDE8F08DAA
:100A20000020054346EAE0762C4337430A986305E5
:100A3000E40AA0EB08000022FD0A44EA47540A3009
:100A400002D500200146E9E7010510196941DDE9F9
:100A5000084500196941BDE8F04DA2E72DE9F04DC8
:100A600000231A461B1A8A4103DB00200146BDE819
:100A7000F08DC1F30A52C1F3130141F480154FF018
:100A8000000BD10702D100186D41521E0027044609
:100A900040F2FF11384601EB620A3E4680460246AC
:100AA00000204FF48011FFF72DFEC2197141BB18D1
:100AB00046EB0100B4EB030C75EB000C04D3E41A15
:100AC00065EB000517460E46241908F101006D413B
:100AD00080463428E3DDF91946EB0600091BA841DE
:100AE00003D24FF0FF32134601E0002213461BEB06
:100AF000070046EB0A51BDE8F04DFFF752BF00007A
:100B0000064C074D06E0E06840F0010394E807005A
:100B100098471034AC42F6D3FFF7ECFAB83C000823
:100B2000D83C000870B5044600688168C943C9070D
:100B30001CD1816821F00101816000F0DFFF0546D2
:100B40000FE000BF00F0DAFF401B022809D9A06ABD
:100B500040F01000A062E06A40F00100E062012075
:100B600070BD20688068C043C007EBD0002070BD16
:100B700010B50146406A826A12F0500F05D0006A33
:100B8000026BBDE8104008461047816A41F40071CD
:100B9000816201688968C1F3424107290CD1C168AB
:100BA00051B9816A21F480718162816AC90403D4D8
:100BB000816A41F00101816200F01CFB10BD10B59B
:100BC000406A816A41F040018162C16A41F00401DA
:100BD000C16200F066FB10BD10B5406A00F060FB1A
:100BE00010BD0000F8B50026044600960068816834
:100BF000C943C90728D0816841F0010181601348C9
:100C000013490068B0FBF1F000E0401E009000289E
:100C1000FBD100F073FF054611E000BF00F06EFF4E
:100C2000401B02280BD9A06A40F01000A062E06AC5
:100C300040F00100E06284F824600120F8BD2068E3
:100C40008068C043C007E9D10020F8BD080000203B
:100C500040420F00FEE70000014800F0D1BC000058
:100C60000C0D002010B5046863604368102B036806
:100C700003D099600068C26010BD9A600068C160CE
:100C800010BD7047FEE70000174810B5816986B0B7
:100C900041F004018161816901F0040104918169DD
:100CA00041F008018161816901F0080104918169C5
:100CB00041F01001816180690C4C00F0100004903B
:100CC000F02000900120019000200290022003906B
:100CD0006946204600F02AFE0122F021204600F05D
:100CE00008FF06B010BD000000100240000C0140DB
:100CF00002F006B82DE9F04115461E460F4604469F
:100D0000A84202D9D0B2254604463246394620468A
:100D100000F0FDF8641CA4B2A542F6D2BDE8F08153
:100D200001F072BF2DE9FC5F05460C98984691468C
:100D30000C4600286FD0322800D932204608871B85
:100D4000A9EB05037F1EA8EB04024FF0FF30002B38
:100D500002DD4FF0010B01E005DA8346002A12DDC7
:100D60004FF0010010E0AE1B00D5002605EB070593
:100D700008F0FF02E1B2B0B20D9B00F01EF9AE42E6
:100D800072DA761CF4E70BDA82460BFB03F1504370
:100D90004A00019242000092814239DB501A1FE062
:100DA000A61B00D500263C441FFA89F2F1B2A8B276
:100DB0000D9BFFF79FFFA64256DA761CF4E700284A
:100DC00000DA0020E119CAB2C1B2A8B20D9B00F04E
:100DD000F4F85D44B8F1000F04DA009908EB010063
:100DE000804604E0DDE90001411A884454444D4541
:100DF000A4EB0600E3D1002800DA0020E119CAB212
:100E00000D9BC1B202B0A8B2BDE8F05F00F0D5B84A
:100E10000199081A10E027E0002800DA0020E919FB
:100E20008AB2E1B280B20D9BFFF764FF5444B9F17E
:100E3000000F03DA01984844814604E0DDE9001020
:100E4000411A89445D444445A5EB0600E4D10028DD
:100E500000DA0020E9190D9B8AB202B0E1B2BDE8C8
:100E6000F05F80B2FFF746BFBDE8FC9F2DE9F05F61
:100E70001F4690460E46054680281ED2402E1CD2A4
:100E80000024DFF848A0DFF848B01BE0600701D17C
:100E900018F8019B04F007011AF8010010EA090F85
:100EA00002D19BF8002001E00A480278F1B2A8B212
:100EB00000F02DF86D1C802D02D30020BDE8F09FBE
:100EC000641CE4B2BC42E1D30120F7E7B03C000867
:100ED00011000020100000202DE9F0471E461446A6
:100EE0000F4681460025DDF820800CE0334622467F
:100EF00039464846FFF7BAFF7F1C04EBD60470075B
:100F000000D0641C6D1C4545F0D3BDE8F087C0B22D
:100F100001F05ABE2DE9F05F0F460446782801D84B
:100F2000382F02D90020BDE8F09FA2F120006028F0
:100F300000D32022203A1449D0B2DFF85090002686
:100F400001EBC00ADFF848B01AF80680002500BFA0
:100F500019F8050010EA080F02D19BF8002001E003
:100F60000C480278F9B2A0B2FFF7D1FF6D1CEDB2C8
:100F7000641C062DECD3761CF6B2A41F7F1C082E31
:100F8000E0D30120CFE70000B0390008B03C0008F2
:100F9000110000201000002070B514460E460546D2
:100FA0002278002A08D031462846641CFFF7B2FF99
:100FB000002801D0AD1DF3E770BD2DE9F0411546C5
:100FC0001E4607460C46A94201D90D461446324634
:100FD00021463846FFF79BFF641CE4B2A542F6D2D7
:100FE000BDE8F081014A1070517070471000002078
:100FF0002DE9F047DFF8909000246FF00E076FF0B6
:10100000070A09F5007800BF59F8241008B20E1439
:10101000FFF735FC0821FFF70FFC3946FFF70CFC02
:1010200005463046FFF72BFC0821FFF705FC394643
:10103000FFF702FC0146FFF7CDFB064629460846AE
:10104000FFF7C8FB3146FFF76DFBFFF735FC02F0F9
:101050007DFA5246FFF7FCFBFFF741FC64B110211B
:10106000FFF7EAFBFFF714FC48F82400641CA4B265
:10107000802CC9D3BDE8F0870F21FFF7DDFBFFF718
:1010800007FCC8F80000F1E71C080020F8B50025AF
:10109000009590F82420AE46012A1ED0012280F847
:1010A00024204A681F244FF47873072A17D2066851
:1010B000776B93FAA3FCBCFA8CFC521E02FB0CFC6F
:1010C00004FA0CF4A74393FAA3F3B3FA83F30C687E
:1010D0005A439440274377632DE00220F8BD066809
:1010E0000D2A14D2376B93FAA3FCBCFA8CFCD21FE6
:1010F00002FB0CFC04FA0CF4A74393FAA3F3B3FA33
:1011000083F30C685A4394402743376313E0F76A2C
:1011100093FAA3FCBCFA8CFC0D3A02FB0CFC04FA1B
:101120000CF4A74393FAA3F3B3FA83F30C685A437E
:1011300094402743F7620A683823072406680A2A7E
:1011400014D3F76893FAA3FCBCFA8CFC0A3A02FBAE
:101150000CFC04FA0CF4A74393FAA3F3B3FA83F359
:101160008C685A4394402743F76012E0376993FA3A
:10117000A3FCBCFA8CFC02FB0CFC04FA0CF4A743A5
:1011800093FAA3F3B3FA83F38C685A43944027434A
:1011900037610A68102A01D0112A20D1124B026847
:1011A0009A4217D193681B0219D4936843F4000341
:1011B00093600968102912D10C490D4A0968B1FBE6
:1011C000F2F101EB8101490000E0491E0091002984
:1011D000FBD104E0816A41F020018162012580F8A1
:1011E00024E02846F8BD000000240140080000204B
:1011F00040420F0010B50024254800F0AFF9254A01
:1012000002F5806132F82400A0F50060000441F886
:101210002400641CA4B2FF2CF4D91F494FF480743D
:10122000224601F58060FEF76BFFFFF7E1FE1B48E9
:10123000817801290DD18188B1F5967F09D90021E6
:1012400081804178491CC9B24170042901D901212A
:1012500041708188491C81804078012808D002288B
:1012600009D0032801D0042808D002F047F807E08D
:1012700001F09EFF04E001F0F5FF01E002F09EF8AE
:101280002246BDE810400349014800F0E1B80000E3
:10129000DC0C00201C0000201C04002000000020AA
:1012A000704770472DE9F04104004FF0000514D05D
:1012B000A06A002628B9E66284F82460204600F07F
:1012C0008BF82046FFF72EFCA16A01F010010143C4
:1012D00004D0A06A40F01000A06277E0A16A21F477
:1012E000885141F00201A1626268E16902270A4364
:1012F000E16897FAA7F70B46B7FA87F7B9400A43B0
:10130000A1684FF48077B94208D0012906D00021A6
:10131000D4F814C0BCF1010F02D00AE03946F7E757
:10132000F3B1A36A43F02003A362E36A43F001032D
:10133000E3622368D3F804C02CF4694C4CEA010C36
:10134000C3F804C021688B68DFF884C003EA0C038B
:1013500013438B60A168B94210D001290ED016E06A
:101360004FF4604CA3699CFAACFCBCFA8CFC5B1E8D
:1013700003FA0CF30B4343F40061DAE74FF4700116
:10138000256991FAA1F1B1FA81F16D1E8D402168B4
:10139000CB6A23F470032B43CB62216889680D4B21
:1013A0001940914208D1E662A16A21F0020141F0A0
:1013B0000101A162BDE8F081A06A20F0020040F0C6
:1013C0001000A062E06A40F00100E0620120F1E755
:1013D000FDF7E1FFFE0E1FFF30B505460068174917
:1013E00085B0884227D11648816941F40071816136
:1013F0008069694600F40070049001200090032089
:101400000190104800F092FA104C0F4880212060A3
:1014100000206060C4E902018900216189006161E6
:101420002021C4E90610204600F020FA08B1FFF799
:1014300029FC2C62656205B030BD0000002401402B
:101440000010024000080140080002400C0D00207E
:101450002DE9F047894604463B4900683B4F0E1D85
:101460009046884201D0B84207D1306810F4702FFE
:1014700003D001252846BDE8F08794F82400012810
:101480000CD0012084F824002046FFF7ABFB0500B8
:101490004FF0000004D084F82400EBE70220EAE7D4
:1014A000A16A40F60162914341F48071A162216812
:1014B000B94218D1326812F4702F14D0A16A41F4E5
:1014C0008011A1623168490505D5A16A21F4005156
:1014D00041F48051A162A16AC9040AD5E16A21F0F0
:1014E0000601E16206E0A26A22F48012A262496863
:1014F000E9E7E06284F82400216A15488862216ADD
:101500001448C862216A1448086321686FF0020019
:1015100008602068816841F48071816021684346D9
:101520004A464C31206A00F0C9F920688168C1F34D
:1015300042410729816803D041F48011816099E715
:1015400041F4A001FAE70000002401400028014016
:10155000710B0008D90B0008BF0B000810B504463A
:1015600090F82400012807D0012084F824002046A8
:10157000FFF7D8FA10B10EE0022010BD2068816894
:1015800021F480718160206A00F00EF8A16A30B108
:1015900041F04001A162002184F8241010BD21F423
:1015A000885141F00101F5E72DE9F041044600685A
:1015B000016821F00101016000F0A0FA0546002653
:1015C0004FF47A7710E000BF00F098FA401BB84261
:1015D0000AD954F8340F40F0200044F814090320CD
:1015E00060702670BDE8F08120680068C007EBD10C
:1015F000012084F8210084F820600020F2E7000038
:101600002DE9F05FDFF860820446D8F80020DFF8AB
:1016100058B2954D944E944F0068DFF84C92DFF825
:1016200048A20BF1080B1C35303644374FF40061EB
:101630004FF4004C4FF4002E09F158090AF16C0ADE
:10164000584501D1082316E0A84201D1802312E0B9
:10165000B04201D10B460EE0B84201D163460AE028
:10166000484501D1734606E0504502D14FF40003CE
:1016700001E04FF000631A4231D00268D2431207F2
:101680002DD4026822F0080202602068584501D17A
:10169000082114E0A84201D1802110E0B0420ED010
:1016A000B84201D161460AE0484501D1714606E0E1
:1016B000504502D14FF4000101E04FF00061C8F83D
:1016C0000410606B40F001006063042084F8210086
:1016D000002084F82000216B09B120468847624829
:1016E000D0F800C04FF4806120680A010B044FF469
:1016F000802E584502D14FF0040816E0A84202D1CE
:101700004FF0400811E0B04201D188460DE0B842E8
:1017100001D1904609E0484501D1F04605E0504529
:1017200002D14FF4800800E098461CEA080F33D03D
:10173000D0F800C06FEA0C0C5FEA4C7C2CD4D0F8D7
:1017400000C05FEA8C6C05D4D0F800C02CF0040C0B
:10175000C0F800C02068584501D1042113E0A84218
:1017600001D140210FE0B0420DD0B84201D1114665
:1017700009E0484501D1714605E0504502D14FF4DA
:10178000800100E0194638484160112084F82100AA
:10179000E16A09B120468847334AD2F800C05B4667
:1017A000206851154FF4005B4FF4003E984202D17F
:1017B0004FF0020817E0A84202D14FF0200812E0D3
:1017C000B04201D188460EE0B84201D1D8460AE0C5
:1017D000484501D1F04606E0504502D14FF40018CB
:1017E00001E04FF000781CEA080F3BD0D0F800C0B1
:1017F0006FEA0C0C5FEA8C7C34D4D0F800C05FEA4E
:101800008C6C05D4D0F800C02CF0020CC0F800C0DD
:101810002068984201D1022114E0A84201D1202180
:1018200010E0B0420ED0B84201D159460AE0484516
:1018300001D1714606E0504502D14FF4001101E09C
:101840004FF000715160606B6063012084F82100EB
:10185000002084F82000A16A002903D02046BDE8BA
:10186000F05F0847BDE8F09F0000024070B520B16E
:1018700090F82110002411B103E0012070BD80F820
:101880002040022180F8211003681A6843F6F071A5
:101890008A43D0E901152943D0E90356354329434A
:1018A0004569294385692943C5692943114319605D
:1018B0004463012180F82110002070BD70B50446FA
:1018C00090F82000012823D0012084F82000022075
:1018D00084F821002068056825F001050560204690
:1018E000FFF7C0F92068016841F00201016020683B
:1018F000016841F0040101602068016841F00801BD
:1019000001602068016841F001010160002070BDA4
:10191000022070BD31B500F0F1F8044600F0EEF899
:101920000099001B8842F9D338BD00002DE9F84F1B
:10193000DFF890A100220AF1040B144601274FF0B2
:101940000F090BF1040E00BF0B6807FA04F52B40DA
:10195000AB4274D1DFF870C14E68A6EB0C08664547
:101960002BD00DDC032E34D005DC36B3012E19D07C
:10197000022E2FD11BE0112E16D0122E2AD119E0E3
:10198000B8F5881F19D006DCB8F5803F15D0B8F53A
:10199000801F1FD111E0B8F5001F0ED0B8F5041F4D
:1019A00018D10AE0CA6815E0CA68121D12E0CA68B8
:1019B00008320FE0CA680C320CE08A682AB1012AAA
:1019C0004FF0080203D0456104E0042202E0056103
:1019D00000E00022FF2B01D8064601E000F10406DA
:1019E0004FEA840501D9A5F12005D6F800C009FA0F
:1019F00005F82CEA080C02FA05F54CEA050CC6F8C5
:101A000000C04D68ED0057D5304DAE6946F0010677
:101A1000AE61AD6924F0030605F0010500952C4D7B
:101A200006EB050CDCF80850A6074FEA167809FA11
:101A300008F6B543274EB04202D1002610E03BE045
:101A4000254EB04201D101260AE0244EB04201D118
:101A5000022605E0224EB04201D1032600E0042612
:101A600006FA08F62E43CCF808604D68DAF80060F4
:101A7000ED03554601D51E4300E09E432E604D68A0
:101A8000DBF80060AD035D4601D51E4300E09E43D8
:101A90002E604D68DEF80060ED02754601D51E43EC
:101AA00000E09E432E604D68AD020E4D2E6801D5BC
:101AB0001E4300E09E432E60641C102CFFF444AFD4
:101AC000BDE8F88F00040140000011100010024032
:101AD0000000014000080140000C014000100140DE
:101AE000001401400C0401408068084000D001202F
:101AF00070470AB1016170470904FBE701480068BB
:101B0000704700000C00002002480168491C016079
:101B1000704700000C000020074810B5016841F034
:101B200010010160032000F087F8002000F006F8A3
:101B300000F016F8002010BD0020024010B5044649
:101B400000F0E6F94FF47A71B0FBF1F000F026FDF9
:101B500000222146501E00F04FF8002010BD00006A
:101B60001D4808B5816941F001018161806900F07B
:101B700001000090032000F05FF8002211466FF092
:101B80000B0000F039F8002211466FF00A0000F057
:101B900033F8002211466FF0090000F02DF8002202
:101BA0001146501F00F028F800221146101F00F0C7
:101BB00023F800221146901E00F01EF80022114664
:101BC000501E00F019F80548416821F0E06141F02D
:101BD0008061416008BD000000100240000001402B
:101BE00000F01F02012191404009800000F1E02037
:101BF000C0F8001170470000F0B40E4B1B680C4693
:101C0000C3F30223C3F10705042D00D90425191DD0
:101C1000072901D2002300E0DB1E012606FA05F1A8
:101C2000491E214099409E40761E16403143F0BC2B
:101C300000F0A2BF0CED00E0064900F007020868C2
:101C40004FF6FF03184040EA0220034A10430860A1
:101C5000704700000CED00E00000FA052DE9F843A4
:101C600005460078454CC00774D0E06940F08050CC
:101C7000E061E069424E00F080500090306840F42E
:101C800080703060FFF73AFF074604E0FFF736FF49
:101C9000C01B642833D83068C005F7D5206A10F41B
:101CA000407051D0A98801F4407181424CD0206A23
:101CB0000126310491FAA1F2B2FA82F29300314A7C
:101CC00020F440701344C3F8006491FAA1F1B1FA12
:101CD00081F102EB81010023C1F800342062C007CA
:101CE00032D0FFF70BFF074641F288394FF0020868
:101CF00008E000BFFFF702FFC11B494502D90320DE
:101D0000BDE8F88398FAA8F1B1FA81F141F04001F9
:101D10004046B6EB511F01D121680BE090FAA0F1CB
:101D2000B1FA81F141F04001B0EB511F01D1216ABC
:101D300000E0616A98FAA8F0B0FA80F000F01F02A3
:101D400006FA02F00142D5D0206A696820F440709A
:101D5000084320622878800705D56068A96820F4C8
:101D60004040084360602878C00605D56068E9688F
:101D700020F48000084360600020C1E700100240AA
:101D800000700040000042422DE9F047DFF870810A
:101D900005460E46D8F8000000F00700B0420CD20D
:101DA000D8F8001021F007013143C8F80010D8F826
:101DB000000000F00700B04277D12878514C80072E
:101DC00005D56068A96820F0F000084360602878B5
:101DD000C00759D06968012001290DD0022929D0F6
:101DE0005FF0020393FAA3F2B2FA82F242F0200209
:101DF000520904D0226803E04FF40033F2E7626A2C
:101E000093FAA3F3B3FA83F303F01F03984002425B
:101E10004BD0606820F0030008436060FFF76EFE5F
:101E20006968074641F2883001290DD002298146B0
:101E300017D025E04FF00073D4E700BFFFF75EFE38
:101E4000C11B494501D918E081466068C0F3810093
:101E50000128F3D118E000BFFFF750FEC11B494530
:101E60000BD86068C0F381000228F5D10CE000BFF8
:101E7000FFF744FEC11B494502D90320BDE8F087A6
:101E8000606810F00C0FF3D1D8F80010404601F054
:101E90000701B1420BD9016821F00701314301600C
:101EA000006800F00700B04201D00120E6E7287882
:101EB000400705D56068E96820F4E0600843606089
:101EC0002878000706D56068296920F4605040EA48
:101ED000C100606000F052F86168F02292FAA2F24C
:101EE00001F0F001B2FA82F2D140074A515CC840D9
:101EF000064908600020FFF721FE0020BEE7000031
:101F0000002002400010024098390008080000201C
:101F1000014800687047000008000020084809498F
:101F2000006849684FF4E06292FAA2F201F4E061BD
:101F3000B2FA82F2D140044A515CC84070470000B6
:101F40000800002000100240A8390008084809498C
:101F5000006849684FF4605292FAA2F201F46051AD
:101F6000B2FA82F2D140044A515CC8407047000086
:101F70000800002000100240A839000810B519A37D
:101F800085B00FCB8DE80F001AA01B4B00680490A2
:101F90005A681A4802F00C0104291DD008291BD1E7
:101FA0004FF4701494FAA4F402F47011B4FA84F4A7
:101FB000E140D2031DF8011010D55A684FF40033E8
:101FC00093FAA3F302F40032B3FA83F3DA4004ABDA
:101FD0009A5CB0FBF2F0484305B010BD0848484396
:101FE000FAE7000002030405060708090A0B0C0DB6
:101FF0000E0F1010010200000010024000127A00C3
:1020000000093D002DE9F84F04460078F74DC00760
:102010004FF0010625D068687704C0F381000128DD
:1020200007D06868C0F3810002281BD16868C0032C
:1020300018D597FAA7F0B0FA80F040F020004009D8
:1020400001D0286800E0686A97FAA7F1B1FA81F137
:1020500001F01F0106FA01F108425ED06068002815
:102060007CD05AE06068B0F5803F0BD010B1B0F57D
:10207000A02F11D0286820F480302860286820F430
:10208000802002E0286840F480302860606828B32F
:10209000FFF734FD80460BE0286840F4802028607C
:1020A000F0E700BFFFF72AFDA0EB0800642871D815
:1020B00097FAA7F0B0FA80F040F02000400901D074
:1020C000286800E0686A97FAA7F1B1FA81F101F097
:1020D0001F0106FA01F10842E4D01EE0FFF70EFDF1
:1020E000804605E0FFF70AFDA0EB08006428DED873
:1020F00097FAA7F0B0FA80F040F02000400901D034
:10210000286800E0686A97FAA7F1B1FA81F101F056
:102110001F0106FA01F10842E4D12078DFF8D082ED
:1021200080074FF000094FF002075BD568684FF059
:10213000F80B10F00C0F07D06868C0F3810002287C
:102140001CD16868C00319D497FAA7F0B0FA80F0E0
:1021500040F02000400902D0286801E08BE0686A66
:1021600097FAA7F1B1FA81F101F01F0106FA01F126
:1021700008422CD0206901287DD128E0206990B345
:1021800096FAA6F0B0FA80F048F82060FFF7B6FCA7
:10219000824607E011E100BFFFF7B0FCA0EB0A00A8
:1021A000022884D897FAA7F0B0FA80F040F0200017
:1021B000400901D0286800E0686A97FAA7F1B1FAEF
:1021C00081F101F01F0106FA01F10842E4D028680C
:1021D0009BFAABF26169B2FA82F220F0F80091400A
:1021E0000843286025E0FFE796FAA6F1B1FA81F1ED
:1021F00048F82190FFF782FC824605E0FFF77EFC5D
:10220000A0EB0A000228CCD897FAA7F0B0FA80F029
:1022100040F02000400901D0286800E0686A97FA81
:10222000A7F1B1FA81F101F01F0106FA01F10842AC
:10223000E4D1207800076ED5A069B8B396FAA6F06D
:10224000B0FA80F008EB8000C0F88064FFF756FC1D
:10225000824605E0FFF752FCA0EB0A000228A0D856
:1022600097FAA7F0B0FA80F040F06000B6EB501F8C
:1022700002D128680CE062E197FAA7F0B0FA80F08A
:1022800040F06000B7EB501F01D1286A00E0686A97
:1022900097FAA7F1B1FA81F101F01F0106FA01F2F4
:1022A0001042D7D00120FFF735FB34E0FFE796FA64
:1022B000A6F1B1FA81F108EB8101C1F88094FFF732
:1022C0001DFC824606E000BFFFF718FCA0EB0A00E9
:1022D000022872D897FAA7F0B0FA80F040F06000B8
:1022E000B6EB501F01D128680BE097FAA7F0B0FABF
:1022F00080F040F06000B7EB501F01D1286A00E089
:10230000686A97FAA7F1B1FA81F101F01F0106FAA4
:1023100001F21042D8D12078400765D5E86940F035
:102320008050E861E869DFF8CCB000F080500090A0
:10233000DBF8001041F48071CBF80010FFF7DEFBF2
:10234000824605E0FFF7DAFBA0EB0A00642834D8E8
:10235000DBF80000C005F5D5E06801280AD008B117
:10236000052813D0286A20F001002862286A20F08E
:10237000040002E0286A40F001002862E06841F2AF
:10238000883B90B3FFF7BAFB82460BE0286A40F027
:1023900004002862EEE700BFFFF7B0FBA0EB0A01E4
:1023A00059450AD897FAA7F0B0FA80F040F04000FB
:1023B000B6EB501F02D128680CE0A3E097FAA7F013
:1023C000B0FA80F040F04000B7EB501F01D1286A0E
:1023D00000E0686A97FAA7F1B1FA81F101F01F02F3
:1023E00006FA02F10842D7D031E005E000100240C1
:1023F0000000424200700040FFF780FB824605E08B
:10240000FFF77CFBA0EB0A0159457BD897FAA7F0B0
:10241000B0FA80F040F04000B6EB501F01D12868C0
:102420000BE097FAA7F0B0FA80F040F04000B7EB6D
:10243000501F01D1286A00E0686A97FAA7F1B1FA43
:1024400081F101F01F0206FA02F10842D8D1E069D9
:1024500080B36968C1F38101022970D04FF08071A7
:102460004F000228484609D091FAA1F1B1FA81F152
:1024700048F82100FFF742FB044669E08A4691FADA
:10248000A1F1B1FA81F1C14648F82100FFF736FB0E
:10249000804605E0FFF732FBA0EB0800022854D885
:1024A00097FAA7F0B0FA80F040F02000400902D07F
:1024B000286801E061E0686A97FAA7F1B1FA81F152
:1024C00001F01F0106FA01F10842E3D1206AB0F5DC
:1024D000803F05D16868A16820F400300843686037
:1024E000D4E908010843696821F47411084368605D
:1024F0009AFAAAF0B0FA80F049F82060FFF7FEFAE5
:10250000044606E021E000BFFFF7F8FA001B0228AE
:102510001BD897FAA7F0B0FA80F040F020004009ED
:1025200001D0286800E0686A97FAA7F1B1FA81F152
:1025300001F01F0106FA01F10842E5D01DE01EE09E
:10254000FFF7DCFA001B022802D90320BDE8F88F50
:1025500097FAA7F0B0FA80F040F02000400901D0CF
:10256000286800E0686A97FAA7F1B1FA81F101F0F2
:102570001F0106FA01F10842E2D10020E6E701203E
:10258000E4E74FF0E0210428086903D020F00400BC
:102590000861704740F00400FAE7704710B5401E2C
:1025A000B0F1807F01D3012010BD4FF0E0246061C5
:1025B0000F21601700F0E0FA0020A06107202061E1
:1025C000002010BD10B5FFF7E8FF10BD30B590F842
:1025D0003820012A20D0012280F83820022380F8F8
:1025E000393003685C6824F070045C6003685C68E0
:1025F0000D682C435C6003689C6824F080049C6038
:1026000003689C6849680C439C6080F8392000216D
:1026100080F83810084630BD022030BD10B50400E7
:1026200003D094F8390010B107E0012010BD00205C
:1026300084F83800204600F00DF8022084F83900B4
:10264000211D206800F01AFC012084F839000020C8
:1026500010BD000008B500680649884208D1064848
:10266000C16941F00201C161C06900F0020000903F
:1026700008BD00000004004000100240022180F864
:10268000391001680A6842F001020A60012180F8ED
:1026900039100020704770B5044690F838000128C2
:1026A00017D0012584F83850022084F839002068BA
:1026B000826822F0770222F47F4282600868502804
:1026C00037D00DDC202859D005DC88B3102841D143
:1026D00051E0022070BD302853D040283AD13FE06D
:1026E00060282ED070280BD0B0F5805F03D0B0F5F5
:1026F000005F2FD110E02068816821F0070115E00C
:10270000CB68D1E90121206800F0EAFB21688868E4
:1027100040F0770088601DE0CB68D1E90121206896
:1027200000F0DEFB2068816841F48041816011E0A7
:102730001EE0CA684968206800F0E4FB5021206868
:1027400006E0CA684968206800F0EDFB6021206857
:1027500000F0D0FB84F83950002084F8380070BDB8
:10276000CA684968206800F0CDFB40212068EFE787
:1027700000212068ECE710212068E9E7202120688B
:10278000E6E730212068E3E770B5040004D094F850
:102790003900002510B106E0012070BD84F83850E2
:1027A000204600F021F8022084F839002068C16832
:1027B00021F40051C160204600F0C8FB2068016987
:1027C00021F4904101612068416921F02A014161B1
:1027D0002068C16841F40051C160E563012084F8BC
:1027E0003900002070BD000010B50068114986B0A6
:1027F00088421DD11048816941F48041816180691E
:102800000E4C00F4804004904FF4007000900220C1
:1028100001900320039069462046FFF787F80021C6
:102820002015CDE90001029169462046FFF77EF8A8
:1028300006B010BD00380140001002400008014001
:102840002DE9F047044690F8390099460D460128D5
:1028500001D0222858D12DB322B394F83800012892
:1028600052D0012684F838600027E76394F83900D5
:1028700022281AD05FF0120084F83900A284E28482
:102880004FF48058E08C4B46401EE084A0684FF027
:10289000000240454FF08001204613D100F00EFCAD
:1028A00008BB04E00120BDE8F0873220E4E7288877
:1028B0002168C0F308004860206908B16D1C08E079
:1028C000AD1C06E000F0FAFB68B9216815F8010BB1
:1028D0004860E08C0028D5D14B460022402120469C
:1028E00000F0ECFB08B10320DDE794F83900322852
:1028F00006D084F8396000BF84F838700020D2E731
:10290000222084F83900F7E70220CCE7FEE7000038
:1029100070B5334D08212846FFF7E6F8314C012603
:1029200000BB0A20FEF7F6FF08212846FFF7DCF877
:10293000C0B908212846FFF7D7F80028F9D0E07879
:1029400028B10020E07020B1A67027A204E0012089
:10295000F8E70020A07026A200210846FEF71CFB25
:10296000FEF7C6F910212846FFF7BEF8B0B90A20D5
:10297000FEF7D0FF10212846FFF7B6F870B91021F6
:102980002846FFF7B1F80028F9D0E07830B9607830
:10299000401CC0B26070042800D96670202128460F
:1029A000FFF7A2F8002819D10A20FEF7B3FF202173
:1029B0002846FFF799F8002810D120212846FFF774
:1029C00093F80028F9D0E078002807D16078012832
:1029D00001D105206070C0B2401E607070BD000063
:1029E00000080140000000204175746F00000000E5
:1029F0004D616E75616C00003EB5104800240E49B3
:102A00008460C46044610160012505614FF40021C8
:102A10004460C161FEF746FC08B1FEF733F9CDE929
:102A20000045694605480294FEF730FB002801D0B6
:102A3000FEF728F93EBD000000240140DC0C002018
:102A4000094808B5416941F001014161406900222E
:102A500000F00100009011460B20FFF7CDF8BDE813
:102A600008400B20FFF7BCB8001002401A4810B510
:102A7000816986B041F020018161816901F0200106
:102A80000491816941F004018161816901F00401CF
:102A90000491816941F00801816180690F4C00F067
:102AA000080004900022F0212046FFF722F80021C0
:102AB0003820CDE90001029169460948FEF736FF4A
:102AC000F0200090012001900220039069462046EA
:102AD000FEF72CFF06B010BD00100240000C0140B4
:102AE0000008014010B5144886B012490160482121
:102AF0000024C0E901146421C0E90314FFF78EFD2E
:102B000008B1FEF7BFF84FF48050009069460A48BC
:102B1000FFF7C1FD08B1FEF7B5F82020CDE90404A8
:102B200004A90548FFF752FD002801D0FEF7AAF8D6
:102B300006B010BD00040040440D00200C4810B544
:102B40000A4901604FF4E1314160002181600C22AB
:102B5000C160C0E904128161C161FFF715FE002860
:102B600003D0BDE81040FEF78DB810BD003801401D
:102B70009C0C0020FEE770470907090E002806DAC2
:102B800000F00F0000F1E02080F8141D704700F104
:102B9000E02080F80014704730B40021094B0A4649
:102BA0005FF0000003EB0014401CC0B224F81120B9
:102BB0008228F7D3491CC9B20829F1D330BC00F0F0
:102BC0009FB80000800D002010B5832818D83F2939
:102BD00016D80723A3EBD10301F00701C1F10704C5
:102BE0000121A140074CDBB204EB0010002A30F8B1
:102BF0001320C9B201D00A4300E08A4320F8132011
:102C000010BD0000800D002010B5FEF73DF83B4CD4
:102C1000002220212046FEF76CFF6420FEF77AFE9A
:102C2000012220212046FEF764FF0021AE2000F0A3
:102C30008DF80021D52000F089F80021502000F007
:102C400085F80021A82000F081F800213F2000F045
:102C50007DF80021D32000F079F80021084600F02B
:102C600075F80021402000F071F800218D2000F05F
:102C70006DF80021142000F069F80021202000F0F8
:102C800065F80021022000F061F80021A12000F089
:102C90005DF80021C02000F059F80021DA2000F092
:102CA00055F80021122000F051F80021812000F099
:102CB0004DF80021EF2000F049F80021D92000F064
:102CC00045F80021F12000F041F80021DB2000F060
:102CD0003DF80021302000F039F80021A42000F058
:102CE00035F80021A62000F031F80021AF2000F0D7
:102CF0002DF8BDE81040FFF74FBF0000000C014069
:102D000070B5114E002400BF04F1B000C0B2002124
:102D100000F01CF80021084600F018F800211020EF
:102D200000F014F85FF0000506EB0510012110F823
:102D3000140000F00BF86D1CEDB2802DF4D3641C70
:102D4000E4B2082CE0D370BD800D002070B5154EA4
:102D5000054609B1012200E0002210213046FEF7AD
:102D6000C8FE0024002280213046FEF7C2FE28065D
:102D700001D5012200E0002240213046FEF7B9FED5
:102D8000012280213046FEF7B4FE6806641C050E61
:102D9000E4B2082CE6D33046BDE870400122102191
:102DA000FEF7A7BE000C01407047704710B5FEF754
:102DB000ABFEBDE81040FFF705BC30B593B0012174
:102DC0000804CDE900100025029502240491CDE904
:102DD00007404FF4E01009906846FFF713F900B17F
:102DE000FEE70AA90F2081E831004FF48060CDE9A9
:102DF0000D0502210AA8FEF7C7FF00B1FEE74FF458
:102E0000004011900F940FA8FEF728FF00B1FEE7D5
:102E1000FFF77EF84FF47A71B0FBF1F0FFF7BEFBDD
:102E20000420FFF7AEFB00221146501EFEF7E4FE21
:102E300013B030BD0D48016841F0010101604168E7
:102E40000B4A1140416001680A4A11400160016863
:102E500021F480210160416821F4FE0141604FF4BA
:102E60001F0181600449C0030860704700100240E0
:102E70000000FFF8FFFFF6FE08ED00E0F0B5026885
:102E8000144B154C154D4FF08047984205D0B84271
:102E900003D0A04201D0A84203D122F070064A68B4
:102EA0003243984205D0B84203D0A04201D0A84294
:102EB00003D122F44074CA68224302608A68C26265
:102EC0000A688262984201D1096901630121416166
:102ED000F0BD0000002C014000040040000800404C
:102EE00010B5846842EA032224F47F440A43224353
:102EF000826010BD826822F070020A4342F007012E
:102F00008160704710B5036A046A24F0010404620A
:102F1000846924F0F00444EA021423F00A020A430C
:102F20008461026210BD10B5036A23F010030362CE
:102F30008369046A23F4704343EA023224F0A00355
:102F400043EA01118261016210BD00002DE9F041E8
:102F5000044600680169E26821F4405111430161AF
:102F60002169A0680843616908432168CA6841F281
:102F70000C639A430243CA6020684169A26921F444
:102F80004071114341614C492068642532268842D2
:102F90003CD1FEF7DBFF00EBC00101EB00106168E4
:102FA0008900B0FBF1F7FEF7D1FF00EBC00101EBA8
:102FB00000106168B0468900B0FBF1F0B0FBF5F09D
:102FC0006FF01801484307EB800106EB0110B0FBDE
:102FD000F5F000F0F006FEF7B9FF00EBC00101EBE1
:102FE000001061688900B0FBF1F0B0FBF5F006EB72
:102FF0000016FEF7ABFF00EBC00101EB00106168AB
:103000008900B0FBF1F7FEF7A1FF3BE0FEF786FF7A
:1030100000EBC00101EB001061688900B0FBF1F723
:10302000FEF77CFF00EBC00101EB00106168B046C9
:103030008900B0FBF1F0B0FBF5F06FF018014843E8
:1030400007EB800106EB0110B0FBF5F000F0F00695
:10305000FEF764FF00EBC00101EB0010616889001E
:10306000B0FBF1F0B0FBF5F006EB0016FEF756FFF3
:1030700000EBC00101EB001061688900B0FBF1F7C3
:10308000FEF74CFF00EBC00101EB00106168890006
:10309000B0FBF1F0B0FBF5F06FF01801484307EB1F
:1030A000800108EB0110B0FBF5F0216800F00F0083
:1030B00030448860BDE8F081003801402DE9F047D8
:1030C0001D4690460E460446FEF718FD07465FEA89
:1030D00008004FF000094FF0010808D030E0681CEC
:1030E00005D095B1FEF70AFDC01BA8420DD8206897
:1030F000006836EA0000F2D127E0681C20D025B134
:10310000FEF7FCFCC01BA8421AD92068C16821F058
:103110008001C1602068C16821F02001C160206881
:10312000C16821F48071C1602068416921F001010A
:10313000416184F8398084F838900320BDE8F08735
:103140002068006836EA0000D7D00020F6E7FEE7E6
:10315000014A024900F01AB899340008140000200E
:1031600002E008C8121F08C1002AFAD17047704750
:10317000002001E001C1121F002AFBD170470000AE
:103180000149086070470000180000202DE9F04157
:1031900016460F460446002503E03946B047641C36
:1031A0006D1C20780028F8D12846BDE8F081000089
:1031B0002DE9FC5F0021284B0A46002003EB001498
:1031C000401CC0B224F811208228F7D3491C89B2D0
:1031D0000829F2D3DFF884A00024DFF884B00127A7
:1031E0004FF003090AF50075A006060E0AEB8600EB
:1031F00041689BF8000091FBF0F0C0F13D0000F049
:10320000FF08B8F13F0F01D94FF03F08CDE9009713
:1032100032463F2341461046FDF784FD285D404578
:1032200002D905F804800EE03F2801D93F20285537
:10323000CDE90097295D3246CB1C1046FDF772FDA3
:10324000285D801C2855641CA4B2202CCCD3BDE87A
:10325000FC5FFDF74DBD0000800D00201C0A002022
:10326000000000202DE9F0410021214B0A460020FA
:1032700003EB0014401CC0B224F811208228F7D3BD
:10328000491C89B20829F2D31A4FDFF86C80012457
:1032900007F5007557F8241098F8000091FBF0F03E
:1032A000C0F13F00C6B23F2E00D93F2601233F2286
:1032B00031462046FDF781FE285DB04201D92E55EA
:1032C0000DE03F2801D93F202855C1B2481CC2B2A9
:1032D00001232046FDF771FE285D801C2855641CE3
:1032E000A4B2802CD6D3BDE8F041FDF701BD0000AB
:1032F000800D00201C0A0020000000202DE9F04174
:1033000000212B4A0B46002002EB0014401CC0B2E7
:1033100024F811308228F7D3491C89B20829F2D346
:10332000244FDFF89480002407F5007507EB840034
:10333000416898F8000091FBF0F0C0F11D00C6B2A2
:103340001F2E00D91F260123324620212046FDF7DB
:1033500034FEC6F13F00C2B2012320212046FDF712
:103360002CFE285DB04201D92E5518E01E2801D947
:103370001E202855C1B2481CC2B201232046FDF7C9
:103380001CFE285D0123C0F13E01CAB2C0F13F001E
:10339000C1B22046FDF711FE285D801C2855641C33
:1033A000A4B27F2CC2D3BDE8F041FDF7A1BC000060
:1033B000800D00201C0A0020000000202DE9FC5F89
:1033C0000021324A0B46002002EB0014401CC0B220
:1033D00024F811308228F7D3491C89B20829F2D386
:1033E000DFF8ACB000244FF0010903260BF5007A9A
:1033F000A006070E0BEB870041682648007891FB7A
:10340000F0F0C0F11D0000F0FF08B8F11F0F01D966
:103410004FF01F08CDE900693A464D46202341464A
:103420001046FDF77FFCCDE900653A46C8F13F0143
:1034300020231046FDF776FC1AF804005546404557
:1034400002D90AF8048019E01F2801D91F20285545
:10345000CDE90069295D3A46CB1C1046FDF762FCB8
:10346000CDE90069285D3A46C0F13C03C0F13F0157
:103470001046FDF757FC285D801C2855641CA4B23B
:10348000202CB5D3BDE8FC5FFDF732BC800D0020D9
:103490001C0A00200000002013B54FF6FF73012224
:1034A00069460248FFF7CCF901201CBD9C0C0020A6
:1034B00008B50024FEF730FBFFF77FFCFFF7D6FAD4
:1034C000FFF7BEFAFFF73AFBFFF796FAFFF70AFBA2
:1034D00015A0FFF73DFEFDF723FC00210120FDF7BD
:1034E00081FD4020002100908023134A0846FDF70B
:1034F000F3FCFDF7FDFB40F6B830FEF70BFA0F4981
:103500003F200855641CA4B2802CFAD34FF480727B
:103510000B490C48FDF79CFF0B48FFF7AFF800BFC5
:10352000FFF7F6F9FCE700007561727420746573AB
:103530007421200D0A000000983500081C0C0020A2
:103540001C000020DC0C0020440D00202DE9F0417F
:1035500006460F46FDF782FA041E0D4618BF0120ED
:10356000284320F00040C0F17F6000F1E040C00F30
:103570000ED0301C18BF0120384320F00040C0F1AD
:103580007F6000F1E040C00F04BF0120FFF7F8FDAD
:1035900020462946BDE8F081000000000000000040
:1035A0000000000000040000000000000000000017
:1035B00000000000001F00000000000000000000EC
:1035C00000000000001B8000000000000000000060
:1035D0000000000000318100000000000000000039
:1035E00000000000003187C0000000000000000063
:1035F0000000000000610EC00003F7EFE0000000D3
:10360000000000000063186000010A19200000009B
:1036100000000000004218600001020100000000EC
:103620000000000000C63040000122410000000000
:10363000000000003BCE60C00001E3C100000000BC
:103640000000000FFF8C618000012241000000009B
:10365000000000FF800FE180000102010000000077
:10366000000003E0000787000001020100000000E5
:103670000000070000000E00000387038000000028
:1036800000001C0000001C00000000000000000002
:1036900000003FC000000C0000000000000000001F
:1036A00000003FF0000006000000000000000000E5
:1036B0000000783C0000070000000000000000004F
:1036C0000000F80E00000180000000000000000073
:1036D0000000FD0700000180000000000000000065
:1036E0000001FFE381FF00C00000000000000000B7
:1036F0000001C1F987E7E0C0010000E040042100BB
:103700000003801ECFE0706000803F004FE2120097
:1037100000030007CFF038601FFC200171027F809A
:103720000002000385BE0C3004102201420012008A
:1037300000020000000F86200220420147C0528094
:10374000000700000000E6303FFE4203F44E330065
:10375000000200000000733000007FF805427F8007
:103760000006800000001B300FF8020045420000F8
:103770000007C00000001F300808020155423F004A
:103780000002C00000000730080822425542210014
:103790000006C000000000200FF822202542BF00D4
:1037A000000360000000006008084210428321000E
:1037B00000036000000000600808821084423F009F
:1037C0000001B000000000400FF80E030840210087
:1037D00000019000000006C0000000000000000092
:1037E0000001DC0000000EC000000000000000002E
:1037F0000000EC0000001D80000000000000000040
:103800000010670000003B00000000000000000006
:1038100000383BE00000E60000000000000000006F
:10382000007C1CBC0005DC00000000000000000063
:10383000022C0F3FE57F3800000000000000000070
:1038400007B403C3FFF1E000000000000000000027
:1038500007E401FE7D4F80000000001000400000E2
:1038600004F6007FFFFE0000000000100040000092
:1038700006740FF9BF7F8000C00000101FFF00001A
:1038800003367D30001BE0004000001001500000B6
:103890000183E01000187800400000920248000008
:1038A00000E1C170001F1C004000009104440000B2
:1038B0000060FFF0000DE60079DC011098031EEEB9
:1038C00000607C70001836004488021043F02244E7
:1038D00000C0602000081200445004104020182846
:1038E00000C06060001C36004450001000400428F6
:1038F0000060C020000C7200442000101FFF221046
:103900000079C060000CCE007820001000403C1010
:10391000001F8060000DCC0000200010004000104F
:1039200000020060000F180001C0007001C000E03C
:1039300000000040000E70000000000000000000C9
:10394000000000C0000CC0000000000000000000EB
:10395000000000C00007C0000000000000000000E0
:10396000000000C0000E0000000000000000000089
:10397000000000C000060000000000000000000081
:10398000000000C000040000000000000000000073
:10399000000000C000040000000000000000000063
:1039A00001020304060708090000000001020304E5
:1039B0000000000000000000808080808000800007
:1039C000A0A0A000000000005050F850F850500097
:1039D0002078A07028F02000C0C81020409818005F
:1039E0006090A040A8906800C040800000000000E7
:1039F00020408080804020008040202020408000A7
:103A0000005020F820500000002020F82020000066
:103A10000000000000C04080000000F8000000002E
:103A20000000000000C0C00000081020408000001E
:103A3000708898A8C888700020602020202070001E
:103A4000708808304080F80070880830088870005E
:103A500010305090F8101000F880F00808887000BE
:103A6000304080F088887000F80810204040400006
:103A70007088887088887000708888780810600066
:103A800000C0C000C0C000000000C0C000C0408036
:103A900010204080402010000000F800F8000000D6
:103AA00080402010204080007088081020002000F6
:103AB00070880868A8A87000708888F888888800CE
:103AC000F08888F08888F000708880808088700096
:103AD000E09088888890E000F88080F08080F8008E
:103AE000F88080F0808080007088808098887800DE
:103AF000888888F888888800E04040404040E0009E
:103B000038101010109060008890A0C0A09088001D
:103B1000808080808080F80088D8A8A88888880065
:103B20008888C8A8988888007088888888887000E5
:103B3000F08888F08080800070888888A89068006D
:103B4000F08888F0A09088007088807008887000E5
:103B5000F82020202020200088888888888870000D
:103B60008888888888502000888888A8A8A850005D
:103B70008888502050888800888850202020200085
:103B8000F80810204080F800E08080808080E0000D
:103B90000080402010080000E02020202020E000CD
:103BA000205088000000000000000000000000F825
:103BB0008040200000000000000070087888780035
:103BC0008080B0C88888F00000006090809060001D
:103BD000080868988888780000007088F88070006D
:103BE000205040E04040400000007888887808700D
:103BF0008080B0C888888800400040404040400035
:103C000020006020202020C0808090A0C0A09000D4
:103C1000C04040404040E0000000D0A8A888880094
:103C20000000B0D0909090000000609090906000F4
:103C30000000E09090E08080000070909070101084
:103C40000000506040404000000070806010E000C4
:103C50004040E04040406000000090909090700034
:103C6000000088888850200000008888A8A850009C
:103C700000008850205088000000909090701060E4
:103C80000000F8102040F800204040804040200014
:103C90004040404040404000804040204040800044
:103CA0006890000000000000F8F8F8F8F8F8F80054
:103CB0008040201008040201D83C000800000020C9
:103CC0001C00000060310008F43C00081C000020CB
:103CD00064190000703100080201000000000000BB
:103CE00000A24A04000000000000000000000000E4
:043CF00000000000D0
:04000005080000ED02
:00000001FF
